:020000040800F2
:1000000000000120D9050008FD040008FF040008D5
:1000100001050008030500080505000800000000B0
:1000200000000000000000000000000007050008BC
:1000300009050008000000000B0500080D05000878
:1000400021060008210600082106000821060008F4
:1000500021060008210600082106000821060008E4
:1000600021060008210600082106000821060008D4
:1000700021060008210600082106000821060008C4
:1000800021060008210600082106000821060008B4
:1000900021060008210600082106000821060008A4
:1000A0002106000821060008210600082106000894
:1000B0002106000821060008210600082106000884
:1000C0002106000821060008210600082106000874
:1000D0002106000821060008210600082106000864
:1000E0002106000821060008210600082106000854
:1000F0002106000821060008210600082106000844
:100100002106000821060008210600082106000833
:100110002106000821060008210600082106000823
:100120002106000821060008210600082106000813
:1001300000000000000000000000000000000000BF
:1001400000000000000000000000000000000000AF
:10015000000000000000000000000000000000009F
:10016000000000000000000000000000000000008F
:10017000000000000000000000000000000000007F
:10018000000000000000000000000000000000006F
:10019000000000000000000000000000000000005F
:1001A000000000000000000000000000000000004F
:1001B000000000000000000000000000000000003F
:1001C000000000000000000000000000000000002F
:1001D000000000000000000000000000000000001F
:0401E0005FF8E0F1F3
:1001E40010B5054C237833B9044B13B10448AFF36D
:1001F40000800123237010BD3C0400200000000097
:10020400DC14000808B5034B1BB103490348AFF3E2
:10021400008008BD0000000040040020DC14000839
:100224007047000000B583B0AA2300930023ADF803
:1002340004308DF80100072814D0192812D0222880
:1002440010D023280ED001238DF802308DF803102E
:10025400A0F15603DBB20133DBB219448DF804106C
:10026400052211E002238DF802300B0A8DF80330C9
:100274008DF804105638C0B20230C0B20344DBB269
:1002840019448DF8051006224FF6FF73694603489A
:1002940000F0A1FF03B05DF804FB00BF5C04002084
:1002A40030B58FB005460C4640F6AA0301933022C0
:1002B400002102A801F020F8204601F06FF8053073
:1002C4008DF806008DF80750042206E0511C3832E0
:1002D4006A4402F8343C0134CAB22378002BF5D1C5
:1002E400511CC9B22A2402F13800684400F8344C85
:1002F400901CC0B2383169444FF03F0C01F834CC43
:10030400D11CC9B23830684400F834CC141DE4B2AE
:100314003831694401F834CC10E004F138010DEBB4
:10032400010010F8341C03F138050DEB050C1CF822
:1003340034CC614400F8341C0133DBB2A342ECD367
:1003440005324FF6FF73D2B201A9024800F043FF11
:100354000FB030BD5C04002010B50446042000F04A
:1003640029FA014B1C6010BD5804002010B44FF052
:10037400E02254690B4B1B6800FB03FC93690021CA
:1003840004E0E01A02441144614509D21A464FF0D0
:10039400E0239B699A42FAD0F3D9D21A1144F3E7C5
:1003A40010BC70475804002038B50546002404E00A
:1003B4004FF47A70FFF7DAFF0134A542F8D838BD5C
:1003C40082B0064B9A6942F004029A619B6903F079
:1003D40004030193019B02B0704700BF0010024068
:1003E40072B6FEE700B591B02822002106A800F0FD
:1003F40083FF002301930293039304930593012243
:1004040006924FF4803307930A9202220D920E93C0
:1004140006A800F015FB70B90F2301930223029381
:10042400002103910491059101A800F049FD20B930
:1004340011B05DF804FBFFF7D3FFFFF7D1FF000015
:1004440030B589B001AC1A4D0FCD0FC495E8070043
:1004540003C4227000F00AF9FFF7C4FF4820FFF735
:100464007BFF00F08FF8FFF7ABFFFFF7D9FE4FF4E7
:10047400FA7000F01FF91E211320FFF7D3FE0A20A3
:1004840000F018F902210720FFF7CCFE01A9022091
:10049400FFF706FF052408E002210720FFF7C2FE4C
:1004A400C820FFF781FF013CE4B2002CFDD0F3E744
:1004B400F414000882B00E4B9A6942F001029A616A
:1004C4009A6902F001020092009ADA6942F08052BD
:1004D400DA61DB6903F080530193019B054A536899
:1004E40023F0E06343F00073536002B0704700BF31
:1004F4000010024000000140FEE7FEE7FEE7FEE7D1
:10050400FEE770477047704708B500F0C1F808BDB2
:10051400704708B500220121252000F0F1F82520BC
:1005240000F026F908BD00000268144B9A4200D07E
:10053400704710B586B003F558439A6942F4804277
:100544009A619B6903F480430193019B4FF4007308
:1005540002930223039303230593094C02A9204623
:1005640000F038F94FF4806302930023039304935B
:1005740002A9204600F02EF906B010BD0038014053
:100584000008014000B583B00F4B9A6942F00402A1
:100594009A619B6903F004030193019B0B480C4B84
:1005A40003604FF41653436000238360C360036108
:1005B4000C2242618361C36100F0DEFDFFF7A9FFF5
:1005C40003B05DF804FB00BF001002405C0400208F
:1005D400003801400C480D490D4A002302E0D4586C
:1005E400C4500433C4188C42F9D30A4A0A4C002379
:1005F40001E013600432A242FBD3FFF789FF00F04D
:1006040057FEFFF71DFF7047000000203C04002048
:100614004C1500083C040020A8040020FEE700005C
:1006240010B504460E4B18784FF47A73B3FBF0F30D
:100634000C4A1068B0FBF3F000F0A8F868B90F2C6E
:1006440001D901200AE0002221464FF0FF3000F0DA
:1006540057F8054B1C60002000E0012010BD00BFCE
:1006640004000020000000200800002008B5074A0C
:10067400136843F010031360032000F02FF80F20D9
:10068400FFF7CEFFFFF716FF002008BD0020024051
:10069400034A1168034B1B780B441360704700BF77
:1006A400A004002004000020014B1868704700BF1C
:1006B400A004002038B50446FFF7F6FF0546B4F160
:1006C400FF3F02D0044B1B781C44FFF7EDFF401B97
:1006D400A042FAD338BD00BF04000020074AD36803
:1006E40023F4E0631B041B0C000200F4E0600343EA
:1006F40043F0BF6343F40033D360704700ED00E080
:1007040000B5194BDB68C3F30223C3F1070CBCF13A
:10071400040F28BF4FF0040C03F1040EBEF1060FC2
:1007240018D9033B4FF0FF3E0EFA0CFC21EA0C01F2
:1007340099400EFA03F322EA0303194300280BDB62
:100744000901C9B200F1604000F5614080F800136E
:100754005DF804FB0023E5E700F00F000901C9B2CE
:10076400024B1954F4E700BF00ED00E014ED00E083
:10077400002807DB00F01F02400901239340024ACE
:1007840042F82030704700BF00E100E00138B0F1CA
:10079400807F0BD24FF0E0235861054AF02182F8A4
:1007A40023100020986107221A61704701207047C6
:1007B40000ED00E0042806D04FF0E022136923F096
:1007C4000403136170474FF0E022136943F00403FC
:1007D4001361704770B582B00024A446B0E0874D21
:1007E400AA4210D007D9864DAA420CD005F580350F
:1007F400AA4208D013E0A5F58015AA4203D005F556
:100804007025AA4207D18A68002A62D0012A5BD0E7
:100814004361082403E0A5F58015AA42F3D0BEF194
:10082400FF0F58D80646BEF1FF0F56D84FEA8C0288
:1008340033680F25954023EA050304FA02F21343B3
:1008440033604B6813F0805F78D06E4B9A6942F046
:1008540001029A619B6903F001030193019B4FEA32
:100864009C02951C684B53F825600CF003039D0013
:100874000F23AB4026EA0306644B984233D003F5BA
:100884008063984200F0988003F58063984200F0FA
:10089400958003F58063984200F0928003F58063AD
:1008A400984200F08F8003F58063984219D00623A4
:1008B4001AE0CC68B3E7CC680434B0E7CC680834F9
:1008C400ADE7CC680C34AAE703610824A7E7002449
:1008D400A5E70424A3E7061DA5E7ACF108029200EE
:1008E400A6E7052300E00023AB4033430232464D24
:1008F40045F822304B6813F4803F65D0444A1368AE
:1009040043EA0E0313604B6813F4003F62D0404A7D
:10091400536843EA0E0353604B6813F4801F5FD09F
:100924003B4A936843EA0E0393604B6813F4001F39
:100934005CD0374AD36843EA0E03D3600CF1010C50
:100944000A6832FA0CF357D0012303FA0CF302EAD3
:10095400030E33EA0202F1D14A68122A3FF63FAF8E
:10096400122A3FF65CAF01A555F822F00B080008E7
:10097400B7080008C1080008D308000823080008C5
:100984002308000823080008230800082308000897
:100994002308000823080008230800082308000887
:1009A4002308000823080008230800082308000877
:1009B400BB080008C7080008012395E7022393E752
:1009C400032391E704238FE7114A136823EA0E03F4
:1009D400136098E70E4A536823EA0E0353609BE7BB
:1009E4000B4A936823EA0E0393609EE7084AD36890
:1009F40023EA0E03D360A1E702B070BD0000221009
:100A040000003110001002400000014000080140C5
:100A14000004014082B0084B1B68084AA2FB032370
:100A24005B0A00FB03F3019300BF019B5A1E019272
:100A3400002BF9D102B0704700000020D34D6210A2
:100A4400002800F0F18170B582B00446036813F009
:100A5400010F2CD0994B5B6803F00C03042B1DD0C1
:100A6400964B5B6803F00C03082B12D06368B3F554
:100A7400803F41D0002B55D103F1804303F504336B
:100A84001A6822F480321A601A6822F480221A60EA
:100A940037E08A4B5B6813F4803FE7D0874B1B68D1
:100AA40013F4003F03D06368002B00F0BF81236878
:100AB40013F0020F75D0814B5B6813F00C0F5FD0FD
:100AC4007E4B5B6803F00C03082B54D02369002B86
:100AD40000F08A807A4B01221A60FFF7E5FD054693
:100AE400764B1B6813F0020F75D1FFF7DDFD401B39
:100AF4000228F5D903209EE1704A136843F4803339
:100B04001360636843B3FFF7CFFD05466B4B1B6867
:100B140013F4003FCBD1FFF7C7FD401B6428F5D980
:100B2400032088E1B3F5A02F09D0644B1A6822F49E
:100B340080321A601A6822F480221A60E1E703F115
:100B44008043A3F53C331A6842F480221A601A6881
:100B540042F480321A60D4E7FFF7A6FD0546574BEE
:100B64001B6813F4003FA2D0FFF79EFD401B6428CE
:100B7400F5D903205FE1514B5B6813F4803FA5D1A5
:100B84004E4B1B6813F0020F03D02369012B40F076
:100B94004F814A4A136823F0F803616943EAC103A9
:100BA4001360236813F0080F33D0A369002B5CD0C3
:100BB400434B0122C3F88024FFF776FD05463F4BE3
:100BC4005B6A13F0020F21D1FFF76EFD401B022870
:100BD400F5D903202FE1394A136823F0F80361693A
:100BE40043EAC1031360DCE7354B00221A60FFF7C8
:100BF4005BFD0546314B1B6813F0020FD1D0FFF7A4
:100C040053FD401B0228F5D9032014E10120FFF70E
:100C140001FF236813F0040F00F09680274BDB6973
:100C240013F0805F34D1254BDA6942F08052DA61E7
:100C3400DB6903F080530193019B0125214B1B6861
:100C440013F4807F26D0E368012B3DD0002B53D1D1
:100C540003F1804303F504331A6A22F001021A6295
:100C64001A6A22F004021A6233E0154B0022C3F818
:100C74008024FFF719FD0546104B5B6A13F0020F41
:100C8400C7D0FFF711FD401B0228F5D90320D2E09D
:100C94000025D3E70B4A136843F480731360FFF70E
:100CA40003FD0646074B1B6813F4807FCBD1FFF787
:100CB400FBFC801B6428F5D90320BCE00010024033
:100CC40000004242007000405F4A136A43F001038F
:100CD4001362E36833B3FFF7E7FC06465A4B1B6A1B
:100CE40013F0020F2FD1FFF7DFFC801B41F2883392
:100CF4009842F3D903209EE0052B09D0524B1A6A7F
:100D040022F001021A621A6A22F004021A62E0E76F
:100D14004D4B1A6A42F004021A621A6A42F0010246
:100D24001A62D6E7FFF7C0FC0646474B1B6A13F06E
:100D3400020F08D0FFF7B8FC801B41F288339842B9
:100D4400F3D9032077E0E5B9E369002B72D03E4A7A
:100D5400526802F00C02082A56D0022B17D03B4BE3
:100D640000221A66FFF7A0FC0446374B1B6813F0F9
:100D7400007F47D0FFF798FC001B0228F5D9032019
:100D840059E0314AD36923F08053D361DCE72F4B18
:100D940000221A66FFF788FC05462B4B1B6813F0EC
:100DA400007F06D0FFF780FC401B0228F5D9032002
:100DB40041E0236AB3F5803F1AD023494B6823F4FA
:100DC4007413226A606A024313434B601F4B01226F
:100DD4001A66FFF769FC04461B4B1B6813F0007F7F
:100DE4000ED1FFF761FC001B0228F5D9032022E095
:100DF400154A536823F40033A1680B435360DCE7BE
:100E0400002018E0002016E0012B16D00E4B5B6882
:100E140003F48031226A914211D103F47013626A9F
:100E240093420ED1002006E001207047012002E029
:100E3400012000E0002002B070BD0120FBE701208A
:100E4400F9E70120F7E700BF00100240000042422A
:100E540086B0174B0FCB0DF1180C0CE90F0040F2C4
:100E64000123ADF80430134B5B6803F00C02082A2D
:100E740002D0114806B07047C3F3834218326A4463
:100E840012F8100C13F4803F0DD00A4B5B68C3F3C7
:100E9400404318336B4413F8143C074A02FB00F038
:100EA400B0FBF3F0E6E7054B03FB00F0E2E700BF1D
:100EB400281500080010024000127A0000093D00C5
:100EC400002800F0A08070B50D460446524B1B6804
:100ED40003F007038B420BD24F4A136823F0070336
:100EE4000B431360136803F007038B4240F08D80BB
:100EF400236813F0020F17D013F0040F04D0474AED
:100F0400536843F4E0635360236813F0080F04D07C
:100F1400424A536843F460535360404A536823F091
:100F2400F003A1680B435360236813F0010F31D021
:100F34006368012B20D0022B25D0384A126812F0A6
:100F4400020F64D035494A6822F0030213434B6010
:100F5400FFF7AAFB0646314B5B6803F00C0362689B
:100F6400B3EB820F16D0FFF79FFB801B41F288334F
:100F74009842F0D9032045E0284A126812F4003F51
:100F8400E0D101203EE0254A126812F0007FD9D159
:100F9400012037E0204B1B6803F00703AB420AD95A
:100FA4001D4A136823F007032B431360136803F0EF
:100FB4000703AB422DD1236813F0040F06D0174A60
:100FC400536823F4E063E1680B435360236813F030
:100FD400080F07D0114A536823F46053216943EA88
:100FE400C1035360FFF734FF0C4B5B68C3F3031377
:100FF4000B4AD35CD8400B4B18600B4B1868FFF7B7
:101004000FFB002070BD012070470120FAE701208A
:10101400F8E70120F6E700BF00200240001002407C
:10102400101500080000002008000020014B18687B
:10103400704700BF0000002008B5FFF7F7FF044B1E
:101044005B68C3F30223034AD35CD84008BD00BFE6
:10105400001002402015000808B5FFF7E7FF044B15
:101064005B68C3F3C223034AD35CD84008BD00BF06
:10107400001002402015000810B5044602681369E8
:1010840023F44053C1680B4313618368026913431B
:1010940042691A430168CB6823F4B05323F00C036C
:1010A4001343CB600268536923F4407381690B4393
:1010B40053610268134B9A4220D0FFF7BDFF0246EA
:1010C40002EB820202EB820263689B00B2FBF3F242
:1010D4000D48A0FB02314909642303FB11231B01C2
:1010E4003233A0FB03235B0903F0F00202EB01128D
:1010F40003F00F03216813448B6010BDFFF7ACFFAE
:101104000246DDE7003801401F85EB512DE9F84325
:1011140005460F4616469946DDF820802C6824685B
:1011240037EA04030CBF4FF0010C4FF0000CB44538
:101134001FD1B8F1FF3FF1D0B8F1000F05D0FFF790
:10114400B3FAA0EB09004045E8D92A68D36823F430
:10115400D073D3602A68536923F0010353612023B9
:1011640085F83D3085F83E30002385F83C30032077
:1011740000E00020BDE8F88358B310B5044690F8A9
:101184003D300BB3242384F83D302268D36823F424
:101194000053D3602046FFF76FFF2268136923F4DE
:1011A400904313612268536923F02A035361226830
:1011B400D36843F40053D36000202064202384F8D0
:1011C4003D3084F83E3010BD80F83C30FFF7ACF978
:1011D400D8E7012070472DE9F04182B01E4690F80F
:1011E4003D30DBB2202B54D104460D4690460029F5
:1011F40053D0002A53D090F83C30012B51D0012316
:1012040080F83C3000230364212380F83D30FFF74D
:101214004BFA0746A4F82480A4F82680A368B3F503
:10122400805F05D04FF00008002384F83C3012E0C2
:10123400236913B14FF00008F6E7A8460025F3E749
:1012440038F8023B2268C3F308035360E28C92B27D
:10125400013A92B2E284E38C9BB273B100963B46AE
:10126400002280212046FFF751FFE0B9002DE7D08E
:1012740015F8012B23685A60E8E700963B460022E4
:1012840040212046FFF742FF78B9202384F83D30FF
:1012940000E0022002B0BDE8F0810120FAE701205D
:1012A400F8E70220F6E70320F4E70320F2E7000062
:1012B40070B50D4E0D4D761BB61006D0002455F8B2
:1012C400043B01349847A642F9D1094E094D00F078
:1012D40003F9761BB61006D0002455F8043B0134FC
:1012E4009847A642F9D170BD401500084015000882
:1012F4004815000840150008830730B548D0541E2F
:10130400002A3FD00346CAB201E0013C3AD303F8B5
:10131400012B9D07F9D1032C2DD9CDB245EA052522
:101324000F2C45EA054536D9A4F1100222F00F0C22
:1013340003F1200EE6444FEA121C03F1100242E9C5
:10134400045542E9025510327245F8D10CF10102FC
:1013540014F00C0F03EB021204F00F0C13D0ACF1D9
:10136400040323F003030433134442F8045B93425D
:10137400FBD10CF003042CB1CAB21C4403F8012BBA
:101384009C42FBD130BD64461346002CF4D1F9E7EE
:1013940003461446BFE71A46A446E0E720F00301DB
:1013A40010F00300C0F1000051F8043B00F1040CFC
:1013B4004FEACC0C6FF000021CBF22FA0CF213436C
:1013C4004FF0010C4CEA0C2C4CEA0C4CA3EB0C0235
:1013D40022EA030212EACC1204BF51F8043B04309F
:1013E400F4D0C2F1000102EA0102B2FA82F2C2F1BF
:1013F4001F0200EBD2007047024B13B1024800F009
:1014040005B87047000000001D14000800230146C1
:101414001A46184600F01AB838B5084B084D5B1B3D
:101424009C1007D0043B1D44013C55F804399847EF
:10143400002CF9D1BDE8384000F054B84C15000830
:1014440048150008704700BF704700BF2DE9F047FA
:10145400DFF87CA00646DAF8000098460F4691466D
:10146400FFF7F0FF1B4B1B68D3F8484124B36568B2
:101474001F2D26DC5EB96B1C0235DAF800006360B0
:1014840044F82570FFF7E0FF0020BDE8F087012352
:1014940004EB8501C1F88890D4F88821AB401A4345
:1014A400022EC4F88821C1F80881E4D1D4F88C2133
:1014B4001343C4F88C31DEE703F5A674C3F848413E
:1014C400D5E7DAF80000FFF7BFFF4FF0FF30DCE7A5
:1014D400380400203C150008F8B500BFF8BC08BC6F
:1014E4009E467047F8B500BFF8BC08BC9E467047DE
:1014F4002FE6B58BE8AF95312A2FE6B58BE8AF958B
:10150400322A2F303030303200000000000000005A
:10151400000000000102030406070809000000009F
:101524000102030402030405060708090A0B0C0D53
:0C1534000E0F101000000000100000203E
:08154000FD1300080902000878
:04154800E5010008B1
:10154C000024F40001000000100000000000000066
:10155C0000000000FC02002064030020CC030020EB
:10156C00000000000000000000000000000000006F
:10157C00000000000000000000000000000000005F
:10158C00000000000000000000000000000000004F
:10159C00000000000000000000000000000000003F
:1015AC00000000000000000000000000000000002F
:1015BC00000000000000000000000000000000001F
:1015CC00000000000000000000000000000000000F
:1015DC0000000000000000000000000000000000FF
:1015EC0000000000000000000000000000000000EF
:1015FC0000000000000000000100000000000000DE
:10160C000E33CDAB34126DE6ECDE05000B000000A2
:10161C0000000000000000000000000000000000BE
:10162C0000000000000000000000000000000000AE
:10163C00000000000000000000000000000000009E
:10164C00000000000000000000000000000000008E
:0C197C000000000000000000A404002097
:04000005080005D911
:00000001FF
